{
  "_format": "hh-sol-artifact-1",
  "contractName": "Koleidoken",
  "sourceName": "contracts/Koleidoken.sol",
  "abi": [
    {
      "inputs": [],
      "stateMutability": "nonpayable",
      "type": "constructor"
    },
    {
      "anonymous": false,
      "inputs": [
        {
          "indexed": true,
          "internalType": "address",
          "name": "owner",
          "type": "address"
        },
        {
          "indexed": true,
          "internalType": "address",
          "name": "approved",
          "type": "address"
        },
        {
          "indexed": true,
          "internalType": "uint256",
          "name": "tokenId",
          "type": "uint256"
        }
      ],
      "name": "Approval",
      "type": "event"
    },
    {
      "anonymous": false,
      "inputs": [
        {
          "indexed": true,
          "internalType": "address",
          "name": "owner",
          "type": "address"
        },
        {
          "indexed": true,
          "internalType": "address",
          "name": "operator",
          "type": "address"
        },
        {
          "indexed": false,
          "internalType": "bool",
          "name": "approved",
          "type": "bool"
        }
      ],
      "name": "ApprovalForAll",
      "type": "event"
    },
    {
      "anonymous": false,
      "inputs": [
        {
          "indexed": true,
          "internalType": "address",
          "name": "previousOwner",
          "type": "address"
        },
        {
          "indexed": true,
          "internalType": "address",
          "name": "newOwner",
          "type": "address"
        }
      ],
      "name": "OwnershipTransferred",
      "type": "event"
    },
    {
      "anonymous": false,
      "inputs": [
        {
          "indexed": true,
          "internalType": "address",
          "name": "from",
          "type": "address"
        },
        {
          "indexed": true,
          "internalType": "address",
          "name": "to",
          "type": "address"
        },
        {
          "indexed": true,
          "internalType": "uint256",
          "name": "tokenId",
          "type": "uint256"
        }
      ],
      "name": "Transfer",
      "type": "event"
    },
    {
      "inputs": [
        {
          "internalType": "address",
          "name": "to",
          "type": "address"
        },
        {
          "internalType": "uint256",
          "name": "tokenId",
          "type": "uint256"
        }
      ],
      "name": "approve",
      "outputs": [],
      "stateMutability": "nonpayable",
      "type": "function"
    },
    {
      "inputs": [
        {
          "internalType": "address",
          "name": "owner",
          "type": "address"
        }
      ],
      "name": "balanceOf",
      "outputs": [
        {
          "internalType": "uint256",
          "name": "",
          "type": "uint256"
        }
      ],
      "stateMutability": "view",
      "type": "function"
    },
    {
      "inputs": [],
      "name": "baseExtension",
      "outputs": [
        {
          "internalType": "string",
          "name": "",
          "type": "string"
        }
      ],
      "stateMutability": "view",
      "type": "function"
    },
    {
      "inputs": [],
      "name": "baseURI",
      "outputs": [
        {
          "internalType": "string",
          "name": "",
          "type": "string"
        }
      ],
      "stateMutability": "view",
      "type": "function"
    },
    {
      "inputs": [],
      "name": "cost",
      "outputs": [
        {
          "internalType": "uint256",
          "name": "",
          "type": "uint256"
        }
      ],
      "stateMutability": "view",
      "type": "function"
    },
    {
      "inputs": [
        {
          "internalType": "uint256",
          "name": "tokenId",
          "type": "uint256"
        }
      ],
      "name": "getApproved",
      "outputs": [
        {
          "internalType": "address",
          "name": "",
          "type": "address"
        }
      ],
      "stateMutability": "view",
      "type": "function"
    },
    {
      "inputs": [
        {
          "internalType": "address",
          "name": "owner",
          "type": "address"
        },
        {
          "internalType": "address",
          "name": "operator",
          "type": "address"
        }
      ],
      "name": "isApprovedForAll",
      "outputs": [
        {
          "internalType": "bool",
          "name": "",
          "type": "bool"
        }
      ],
      "stateMutability": "view",
      "type": "function"
    },
    {
      "inputs": [],
      "name": "maxMintAmount",
      "outputs": [
        {
          "internalType": "uint256",
          "name": "",
          "type": "uint256"
        }
      ],
      "stateMutability": "view",
      "type": "function"
    },
    {
      "inputs": [],
      "name": "maxSupply",
      "outputs": [
        {
          "internalType": "uint256",
          "name": "",
          "type": "uint256"
        }
      ],
      "stateMutability": "view",
      "type": "function"
    },
    {
      "inputs": [
        {
          "internalType": "uint256",
          "name": "_mintAmount",
          "type": "uint256"
        }
      ],
      "name": "mint",
      "outputs": [],
      "stateMutability": "payable",
      "type": "function"
    },
    {
      "inputs": [],
      "name": "name",
      "outputs": [
        {
          "internalType": "string",
          "name": "",
          "type": "string"
        }
      ],
      "stateMutability": "view",
      "type": "function"
    },
    {
      "inputs": [],
      "name": "owner",
      "outputs": [
        {
          "internalType": "address",
          "name": "",
          "type": "address"
        }
      ],
      "stateMutability": "view",
      "type": "function"
    },
    {
      "inputs": [
        {
          "internalType": "uint256",
          "name": "tokenId",
          "type": "uint256"
        }
      ],
      "name": "ownerOf",
      "outputs": [
        {
          "internalType": "address",
          "name": "",
          "type": "address"
        }
      ],
      "stateMutability": "view",
      "type": "function"
    },
    {
      "inputs": [
        {
          "internalType": "bool",
          "name": "_state",
          "type": "bool"
        }
      ],
      "name": "pause",
      "outputs": [],
      "stateMutability": "nonpayable",
      "type": "function"
    },
    {
      "inputs": [],
      "name": "paused",
      "outputs": [
        {
          "internalType": "bool",
          "name": "",
          "type": "bool"
        }
      ],
      "stateMutability": "view",
      "type": "function"
    },
    {
      "inputs": [],
      "name": "renounceOwnership",
      "outputs": [],
      "stateMutability": "nonpayable",
      "type": "function"
    },
    {
      "inputs": [
        {
          "internalType": "address",
          "name": "from",
          "type": "address"
        },
        {
          "internalType": "address",
          "name": "to",
          "type": "address"
        },
        {
          "internalType": "uint256",
          "name": "tokenId",
          "type": "uint256"
        }
      ],
      "name": "safeTransferFrom",
      "outputs": [],
      "stateMutability": "nonpayable",
      "type": "function"
    },
    {
      "inputs": [
        {
          "internalType": "address",
          "name": "from",
          "type": "address"
        },
        {
          "internalType": "address",
          "name": "to",
          "type": "address"
        },
        {
          "internalType": "uint256",
          "name": "tokenId",
          "type": "uint256"
        },
        {
          "internalType": "bytes",
          "name": "_data",
          "type": "bytes"
        }
      ],
      "name": "safeTransferFrom",
      "outputs": [],
      "stateMutability": "nonpayable",
      "type": "function"
    },
    {
      "inputs": [
        {
          "internalType": "address",
          "name": "operator",
          "type": "address"
        },
        {
          "internalType": "bool",
          "name": "approved",
          "type": "bool"
        }
      ],
      "name": "setApprovalForAll",
      "outputs": [],
      "stateMutability": "nonpayable",
      "type": "function"
    },
    {
      "inputs": [
        {
          "internalType": "string",
          "name": "_newBaseExtension",
          "type": "string"
        }
      ],
      "name": "setBaseExtension",
      "outputs": [],
      "stateMutability": "nonpayable",
      "type": "function"
    },
    {
      "inputs": [
        {
          "internalType": "string",
          "name": "_newBaseURI",
          "type": "string"
        }
      ],
      "name": "setBaseURI",
      "outputs": [],
      "stateMutability": "nonpayable",
      "type": "function"
    },
    {
      "inputs": [
        {
          "internalType": "uint256",
          "name": "_newmaxMintAmount",
          "type": "uint256"
        }
      ],
      "name": "setmaxMintAmount",
      "outputs": [],
      "stateMutability": "nonpayable",
      "type": "function"
    },
    {
      "inputs": [
        {
          "internalType": "bytes4",
          "name": "interfaceId",
          "type": "bytes4"
        }
      ],
      "name": "supportsInterface",
      "outputs": [
        {
          "internalType": "bool",
          "name": "",
          "type": "bool"
        }
      ],
      "stateMutability": "view",
      "type": "function"
    },
    {
      "inputs": [],
      "name": "symbol",
      "outputs": [
        {
          "internalType": "string",
          "name": "",
          "type": "string"
        }
      ],
      "stateMutability": "view",
      "type": "function"
    },
    {
      "inputs": [
        {
          "internalType": "uint256",
          "name": "index",
          "type": "uint256"
        }
      ],
      "name": "tokenByIndex",
      "outputs": [
        {
          "internalType": "uint256",
          "name": "",
          "type": "uint256"
        }
      ],
      "stateMutability": "view",
      "type": "function"
    },
    {
      "inputs": [
        {
          "internalType": "address",
          "name": "owner",
          "type": "address"
        },
        {
          "internalType": "uint256",
          "name": "index",
          "type": "uint256"
        }
      ],
      "name": "tokenOfOwnerByIndex",
      "outputs": [
        {
          "internalType": "uint256",
          "name": "",
          "type": "uint256"
        }
      ],
      "stateMutability": "view",
      "type": "function"
    },
    {
      "inputs": [
        {
          "internalType": "uint256",
          "name": "tokenId",
          "type": "uint256"
        }
      ],
      "name": "tokenURI",
      "outputs": [
        {
          "internalType": "string",
          "name": "",
          "type": "string"
        }
      ],
      "stateMutability": "view",
      "type": "function"
    },
    {
      "inputs": [],
      "name": "totalSupply",
      "outputs": [
        {
          "internalType": "uint256",
          "name": "",
          "type": "uint256"
        }
      ],
      "stateMutability": "view",
      "type": "function"
    },
    {
      "inputs": [
        {
          "internalType": "address",
          "name": "from",
          "type": "address"
        },
        {
          "internalType": "address",
          "name": "to",
          "type": "address"
        },
        {
          "internalType": "uint256",
          "name": "tokenId",
          "type": "uint256"
        }
      ],
      "name": "transferFrom",
      "outputs": [],
      "stateMutability": "nonpayable",
      "type": "function"
    },
    {
      "inputs": [
        {
          "internalType": "address",
          "name": "newOwner",
          "type": "address"
        }
      ],
      "name": "transferOwnership",
      "outputs": [],
      "stateMutability": "nonpayable",
      "type": "function"
    },
    {
      "inputs": [
        {
          "internalType": "address",
          "name": "_owner",
          "type": "address"
        }
      ],
      "name": "walletOfOwner",
      "outputs": [
        {
          "internalType": "uint256[]",
          "name": "",
          "type": "uint256[]"
        }
      ],
      "stateMutability": "view",
      "type": "function"
    },
    {
      "inputs": [],
      "name": "withdraw",
      "outputs": [],
      "stateMutability": "payable",
      "type": "function"
    }
  ],
  "bytecode": "0x60806040526040518060400160405280600581526020017f2e6a736f6e000000000000000000000000000000000000000000000000000000815250600c90805190602001906200005192919062000223565b5064e8d4a51000600d556103e8600e556005600f556000601060006101000a81548160ff0219169083151502179055503480156200008e57600080fd5b506040518060400160405280600a81526020017f4b6f6c6569646f6b656e000000000000000000000000000000000000000000008152506040518060400160405280600381526020017f444b54000000000000000000000000000000000000000000000000000000000081525081600090805190602001906200011392919062000223565b5080600190805190602001906200012c92919062000223565b5050506200014f620001436200015560201b60201c565b6200015d60201b60201c565b62000338565b600033905090565b6000600a60009054906101000a900473ffffffffffffffffffffffffffffffffffffffff16905081600a60006101000a81548173ffffffffffffffffffffffffffffffffffffffff021916908373ffffffffffffffffffffffffffffffffffffffff1602179055508173ffffffffffffffffffffffffffffffffffffffff168173ffffffffffffffffffffffffffffffffffffffff167f8be0079c531659141344cd1fd0a4f28419497f9722a3daafe3b4186f6b6457e060405160405180910390a35050565b8280546200023190620002d3565b90600052602060002090601f016020900481019282620002555760008555620002a1565b82601f106200027057805160ff1916838001178555620002a1565b82800160010185558215620002a1579182015b82811115620002a057825182559160200191906001019062000283565b5b509050620002b09190620002b4565b5090565b5b80821115620002cf576000816000905550600101620002b5565b5090565b60006002820490506001821680620002ec57607f821691505b6020821081141562000303576200030262000309565b5b50919050565b7f4e487b7100000000000000000000000000000000000000000000000000000000600052602260045260246000fd5b61413b80620003486000396000f3fe6080604052600436106101e35760003560e01c80636352211e11610102578063a22cb46511610095578063d5abeb0111610064578063d5abeb01146106d8578063da3ef23f14610703578063e985e9c51461072c578063f2fde38b14610769576101e3565b8063a22cb4651461061e578063b88d4fde14610647578063c668286214610670578063c87b56dd1461069b576101e3565b80637f00c7a6116100d15780637f00c7a6146105835780638da5cb5b146105ac57806395d89b41146105d7578063a0712d6814610602576101e3565b80636352211e146104c75780636c0360eb1461050457806370a082311461052f578063715018a61461056c576101e3565b806323b872dd1161017a578063438b630011610149578063438b6300146103f95780634f6ccce71461043657806355f804b3146104735780635c975abb1461049c576101e3565b806323b872dd146103605780632f745c59146103895780633ccfd60b146103c657806342842e0e146103d0576101e3565b8063095ea7b3116101b6578063095ea7b3146102b657806313faede6146102df57806318160ddd1461030a578063239c70ae14610335576101e3565b806301ffc9a7146101e857806302329a291461022557806306fdde031461024e578063081812fc14610279575b600080fd5b3480156101f457600080fd5b5061020f600480360381019061020a9190612e2c565b610792565b60405161021c919061340f565b60405180910390f35b34801561023157600080fd5b5061024c60048036038101906102479190612e03565b61080c565b005b34801561025a57600080fd5b506102636108a5565b604051610270919061342a565b60405180910390f35b34801561028557600080fd5b506102a0600480360381019061029b9190612ebf565b610937565b6040516102ad9190613386565b60405180910390f35b3480156102c257600080fd5b506102dd60048036038101906102d89190612dc7565b6109bc565b005b3480156102eb57600080fd5b506102f4610ad4565b60405161030191906136ac565b60405180910390f35b34801561031657600080fd5b5061031f610ada565b60405161032c91906136ac565b60405180910390f35b34801561034157600080fd5b5061034a610ae7565b60405161035791906136ac565b60405180910390f35b34801561036c57600080fd5b5061038760048036038101906103829190612cc1565b610aed565b005b34801561039557600080fd5b506103b060048036038101906103ab9190612dc7565b610b4d565b6040516103bd91906136ac565b60405180910390f35b6103ce610bf2565b005b3480156103dc57600080fd5b506103f760048036038101906103f29190612cc1565b610cae565b005b34801561040557600080fd5b50610420600480360381019061041b9190612c5c565b610cce565b60405161042d91906133ed565b60405180910390f35b34801561044257600080fd5b5061045d60048036038101906104589190612ebf565b610dc8565b60405161046a91906136ac565b60405180910390f35b34801561047f57600080fd5b5061049a60048036038101906104959190612e7e565b610e5f565b005b3480156104a857600080fd5b506104b1610ef5565b6040516104be919061340f565b60405180910390f35b3480156104d357600080fd5b506104ee60048036038101906104e99190612ebf565b610f08565b6040516104fb9190613386565b60405180910390f35b34801561051057600080fd5b50610519610fba565b604051610526919061342a565b60405180910390f35b34801561053b57600080fd5b5061055660048036038101906105519190612c5c565b611048565b60405161056391906136ac565b60405180910390f35b34801561057857600080fd5b50610581611100565b005b34801561058f57600080fd5b506105aa60048036038101906105a59190612ebf565b611188565b005b3480156105b857600080fd5b506105c161120e565b6040516105ce9190613386565b60405180910390f35b3480156105e357600080fd5b506105ec611238565b6040516105f9919061342a565b60405180910390f35b61061c60048036038101906106179190612ebf565b6112ca565b005b34801561062a57600080fd5b5061064560048036038101906106409190612d8b565b6113eb565b005b34801561065357600080fd5b5061066e60048036038101906106699190612d10565b611401565b005b34801561067c57600080fd5b50610685611463565b604051610692919061342a565b60405180910390f35b3480156106a757600080fd5b506106c260048036038101906106bd9190612ebf565b6114f1565b6040516106cf919061342a565b60405180910390f35b3480156106e457600080fd5b506106ed61159b565b6040516106fa91906136ac565b60405180910390f35b34801561070f57600080fd5b5061072a60048036038101906107259190612e7e565b6115a1565b005b34801561073857600080fd5b50610753600480360381019061074e9190612c85565b611637565b604051610760919061340f565b60405180910390f35b34801561077557600080fd5b50610790600480360381019061078b9190612c5c565b6116cb565b005b60007f780e9d63000000000000000000000000000000000000000000000000000000007bffffffffffffffffffffffffffffffffffffffffffffffffffffffff1916827bffffffffffffffffffffffffffffffffffffffffffffffffffffffff191614806108055750610804826117c3565b5b9050919050565b6108146118a5565b73ffffffffffffffffffffffffffffffffffffffff1661083261120e565b73ffffffffffffffffffffffffffffffffffffffff1614610888576040517f08c379a000000000000000000000000000000000000000000000000000000000815260040161087f9061360c565b60405180910390fd5b80601060006101000a81548160ff02191690831515021790555050565b6060600080546108b4906139aa565b80601f01602080910402602001604051908101604052809291908181526020018280546108e0906139aa565b801561092d5780601f106109025761010080835404028352916020019161092d565b820191906000526020600020905b81548152906001019060200180831161091057829003601f168201915b5050505050905090565b6000610942826118ad565b610981576040517f08c379a0000000000000000000000000000000000000000000000000000000008152600401610978906135ec565b60405180910390fd5b6004600083815260200190815260200160002060009054906101000a900473ffffffffffffffffffffffffffffffffffffffff169050919050565b60006109c782610f08565b90508073ffffffffffffffffffffffffffffffffffffffff168373ffffffffffffffffffffffffffffffffffffffff161415610a38576040517f08c379a0000000000000000000000000000000000000000000000000000000008152600401610a2f9061364c565b60405180910390fd5b8073ffffffffffffffffffffffffffffffffffffffff16610a576118a5565b73ffffffffffffffffffffffffffffffffffffffff161480610a865750610a8581610a806118a5565b611637565b5b610ac5576040517f08c379a0000000000000000000000000000000000000000000000000000000008152600401610abc9061356c565b60405180910390fd5b610acf8383611919565b505050565b600d5481565b6000600880549050905090565b600f5481565b610afe610af86118a5565b826119d2565b610b3d576040517f08c379a0000000000000000000000000000000000000000000000000000000008152600401610b349061366c565b60405180910390fd5b610b48838383611ab0565b505050565b6000610b5883611048565b8210610b99576040517f08c379a0000000000000000000000000000000000000000000000000000000008152600401610b909061344c565b60405180910390fd5b600660008473ffffffffffffffffffffffffffffffffffffffff1673ffffffffffffffffffffffffffffffffffffffff168152602001908152602001600020600083815260200190815260200160002054905092915050565b610bfa6118a5565b73ffffffffffffffffffffffffffffffffffffffff16610c1861120e565b73ffffffffffffffffffffffffffffffffffffffff1614610c6e576040517f08c379a0000000000000000000000000000000000000000000000000000000008152600401610c659061360c565b60405180910390fd5b3373ffffffffffffffffffffffffffffffffffffffff166108fc479081150290604051600060405180830381858888f19350505050610cac57600080fd5b565b610cc983838360405180602001604052806000815250611401565b505050565b60606000610cdb83611048565b905060008167ffffffffffffffff811115610d1f577f4e487b7100000000000000000000000000000000000000000000000000000000600052604160045260246000fd5b604051908082528060200260200182016040528015610d4d5781602001602082028036833780820191505090505b50905060005b82811015610dbd57610d658582610b4d565b828281518110610d9e577f4e487b7100000000000000000000000000000000000000000000000000000000600052603260045260246000fd5b6020026020010181815250508080610db590613a0d565b915050610d53565b508092505050919050565b6000610dd2610ada565b8210610e13576040517f08c379a0000000000000000000000000000000000000000000000000000000008152600401610e0a9061368c565b60405180910390fd5b60088281548110610e4d577f4e487b7100000000000000000000000000000000000000000000000000000000600052603260045260246000fd5b90600052602060002001549050919050565b610e676118a5565b73ffffffffffffffffffffffffffffffffffffffff16610e8561120e565b73ffffffffffffffffffffffffffffffffffffffff1614610edb576040517f08c379a0000000000000000000000000000000000000000000000000000000008152600401610ed29061360c565b60405180910390fd5b80600b9080519060200190610ef1929190612a80565b5050565b601060009054906101000a900460ff1681565b6000806002600084815260200190815260200160002060009054906101000a900473ffffffffffffffffffffffffffffffffffffffff169050600073ffffffffffffffffffffffffffffffffffffffff168173ffffffffffffffffffffffffffffffffffffffff161415610fb1576040517f08c379a0000000000000000000000000000000000000000000000000000000008152600401610fa8906135ac565b60405180910390fd5b80915050919050565b600b8054610fc7906139aa565b80601f0160208091040260200160405190810160405280929190818152602001828054610ff3906139aa565b80156110405780601f1061101557610100808354040283529160200191611040565b820191906000526020600020905b81548152906001019060200180831161102357829003601f168201915b505050505081565b60008073ffffffffffffffffffffffffffffffffffffffff168273ffffffffffffffffffffffffffffffffffffffff1614156110b9576040517f08c379a00000000000000000000000000000000000000000000000000000000081526004016110b09061358c565b60405180910390fd5b600360008373ffffffffffffffffffffffffffffffffffffffff1673ffffffffffffffffffffffffffffffffffffffff168152602001908152602001600020549050919050565b6111086118a5565b73ffffffffffffffffffffffffffffffffffffffff1661112661120e565b73ffffffffffffffffffffffffffffffffffffffff161461117c576040517f08c379a00000000000000000000000000000000000000000000000000000000081526004016111739061360c565b60405180910390fd5b6111866000611d17565b565b6111906118a5565b73ffffffffffffffffffffffffffffffffffffffff166111ae61120e565b73ffffffffffffffffffffffffffffffffffffffff1614611204576040517f08c379a00000000000000000000000000000000000000000000000000000000081526004016111fb9061360c565b60405180910390fd5b80600f8190555050565b6000600a60009054906101000a900473ffffffffffffffffffffffffffffffffffffffff16905090565b606060018054611247906139aa565b80601f0160208091040260200160405190810160405280929190818152602001828054611273906139aa565b80156112c05780601f10611295576101008083540402835291602001916112c0565b820191906000526020600020905b8154815290600101906020018083116112a357829003601f168201915b5050505050905090565b60006112d4610ada565b9050601060009054906101000a900460ff16156112f057600080fd5b600082116112fd57600080fd5b600f5482111561130c57600080fd5b600e54828261131b91906137df565b111561132657600080fd5b61132e61120e565b73ffffffffffffffffffffffffffffffffffffffff163373ffffffffffffffffffffffffffffffffffffffff16146113b05781600d5461136e9190613866565b34146113af576040517f08c379a00000000000000000000000000000000000000000000000000000000081526004016113a6906134ec565b60405180910390fd5b5b6000600190505b8281116113e6576113d33382846113ce91906137df565b611ddd565b80806113de90613a0d565b9150506113b7565b505050565b6113fd6113f66118a5565b8383611dfb565b5050565b61141261140c6118a5565b836119d2565b611451576040517f08c379a00000000000000000000000000000000000000000000000000000000081526004016114489061366c565b60405180910390fd5b61145d84848484611f68565b50505050565b600c8054611470906139aa565b80601f016020809104026020016040519081016040528092919081815260200182805461149c906139aa565b80156114e95780601f106114be576101008083540402835291602001916114e9565b820191906000526020600020905b8154815290600101906020018083116114cc57829003601f168201915b505050505081565b60606114fc826118ad565b61153b576040517f08c379a00000000000000000000000000000000000000000000000000000000081526004016115329061362c565b60405180910390fd5b6000611545611fc4565b905060008151116115655760405180602001604052806000815250611593565b8061156f84611fe4565b600c60405160200161158393929190613355565b6040516020818303038152906040525b915050919050565b600e5481565b6115a96118a5565b73ffffffffffffffffffffffffffffffffffffffff166115c761120e565b73ffffffffffffffffffffffffffffffffffffffff161461161d576040517f08c379a00000000000000000000000000000000000000000000000000000000081526004016116149061360c565b60405180910390fd5b80600c9080519060200190611633929190612a80565b5050565b6000600560008473ffffffffffffffffffffffffffffffffffffffff1673ffffffffffffffffffffffffffffffffffffffff16815260200190815260200160002060008373ffffffffffffffffffffffffffffffffffffffff1673ffffffffffffffffffffffffffffffffffffffff16815260200190815260200160002060009054906101000a900460ff16905092915050565b6116d36118a5565b73ffffffffffffffffffffffffffffffffffffffff166116f161120e565b73ffffffffffffffffffffffffffffffffffffffff1614611747576040517f08c379a000000000000000000000000000000000000000000000000000000000815260040161173e9061360c565b60405180910390fd5b600073ffffffffffffffffffffffffffffffffffffffff168173ffffffffffffffffffffffffffffffffffffffff1614156117b7576040517f08c379a00000000000000000000000000000000000000000000000000000000081526004016117ae9061348c565b60405180910390fd5b6117c081611d17565b50565b60007f80ac58cd000000000000000000000000000000000000000000000000000000007bffffffffffffffffffffffffffffffffffffffffffffffffffffffff1916827bffffffffffffffffffffffffffffffffffffffffffffffffffffffff1916148061188e57507f5b5e139f000000000000000000000000000000000000000000000000000000007bffffffffffffffffffffffffffffffffffffffffffffffffffffffff1916827bffffffffffffffffffffffffffffffffffffffffffffffffffffffff1916145b8061189e575061189d82612191565b5b9050919050565b600033905090565b60008073ffffffffffffffffffffffffffffffffffffffff166002600084815260200190815260200160002060009054906101000a900473ffffffffffffffffffffffffffffffffffffffff1673ffffffffffffffffffffffffffffffffffffffff1614159050919050565b816004600083815260200190815260200160002060006101000a81548173ffffffffffffffffffffffffffffffffffffffff021916908373ffffffffffffffffffffffffffffffffffffffff160217905550808273ffffffffffffffffffffffffffffffffffffffff1661198c83610f08565b73ffffffffffffffffffffffffffffffffffffffff167f8c5be1e5ebec7d5bd14f71427d1e84f3dd0314c0f7b2291e5b200ac8c7c3b92560405160405180910390a45050565b60006119dd826118ad565b611a1c576040517f08c379a0000000000000000000000000000000000000000000000000000000008152600401611a139061354c565b60405180910390fd5b6000611a2783610f08565b90508073ffffffffffffffffffffffffffffffffffffffff168473ffffffffffffffffffffffffffffffffffffffff161480611a9657508373ffffffffffffffffffffffffffffffffffffffff16611a7e84610937565b73ffffffffffffffffffffffffffffffffffffffff16145b80611aa75750611aa68185611637565b5b91505092915050565b8273ffffffffffffffffffffffffffffffffffffffff16611ad082610f08565b73ffffffffffffffffffffffffffffffffffffffff1614611b26576040517f08c379a0000000000000000000000000000000000000000000000000000000008152600401611b1d906134ac565b60405180910390fd5b600073ffffffffffffffffffffffffffffffffffffffff168273ffffffffffffffffffffffffffffffffffffffff161415611b96576040517f08c379a0000000000000000000000000000000000000000000000000000000008152600401611b8d9061350c565b60405180910390fd5b611ba18383836121fb565b611bac600082611919565b6001600360008573ffffffffffffffffffffffffffffffffffffffff1673ffffffffffffffffffffffffffffffffffffffff1681526020019081526020016000206000828254611bfc91906138c0565b925050819055506001600360008473ffffffffffffffffffffffffffffffffffffffff1673ffffffffffffffffffffffffffffffffffffffff1681526020019081526020016000206000828254611c5391906137df565b92505081905550816002600083815260200190815260200160002060006101000a81548173ffffffffffffffffffffffffffffffffffffffff021916908373ffffffffffffffffffffffffffffffffffffffff160217905550808273ffffffffffffffffffffffffffffffffffffffff168473ffffffffffffffffffffffffffffffffffffffff167fddf252ad1be2c89b69c2b068fc378daa952ba7f163c4a11628f55a4df523b3ef60405160405180910390a4611d1283838361230f565b505050565b6000600a60009054906101000a900473ffffffffffffffffffffffffffffffffffffffff16905081600a60006101000a81548173ffffffffffffffffffffffffffffffffffffffff021916908373ffffffffffffffffffffffffffffffffffffffff1602179055508173ffffffffffffffffffffffffffffffffffffffff168173ffffffffffffffffffffffffffffffffffffffff167f8be0079c531659141344cd1fd0a4f28419497f9722a3daafe3b4186f6b6457e060405160405180910390a35050565b611df7828260405180602001604052806000815250612314565b5050565b8173ffffffffffffffffffffffffffffffffffffffff168373ffffffffffffffffffffffffffffffffffffffff161415611e6a576040517f08c379a0000000000000000000000000000000000000000000000000000000008152600401611e619061352c565b60405180910390fd5b80600560008573ffffffffffffffffffffffffffffffffffffffff1673ffffffffffffffffffffffffffffffffffffffff16815260200190815260200160002060008473ffffffffffffffffffffffffffffffffffffffff1673ffffffffffffffffffffffffffffffffffffffff16815260200190815260200160002060006101000a81548160ff0219169083151502179055508173ffffffffffffffffffffffffffffffffffffffff168373ffffffffffffffffffffffffffffffffffffffff167f17307eab39ab6107e8899845ad3d59bd9653f200f220920489ca2b5937696c3183604051611f5b919061340f565b60405180910390a3505050565b611f73848484611ab0565b611f7f8484848461236f565b611fbe576040517f08c379a0000000000000000000000000000000000000000000000000000000008152600401611fb59061346c565b60405180910390fd5b50505050565b60606040518060600160405280603681526020016140d060369139905090565b6060600082141561202c576040518060400160405280600181526020017f3000000000000000000000000000000000000000000000000000000000000000815250905061218c565b600082905060005b6000821461205e57808061204790613a0d565b915050600a826120579190613835565b9150612034565b60008167ffffffffffffffff8111156120a0577f4e487b7100000000000000000000000000000000000000000000000000000000600052604160045260246000fd5b6040519080825280601f01601f1916602001820160405280156120d25781602001600182028036833780820191505090505b5090505b60008514612185576001826120eb91906138c0565b9150600a856120fa9190613a56565b603061210691906137df565b60f81b818381518110612142577f4e487b7100000000000000000000000000000000000000000000000000000000600052603260045260246000fd5b60200101907effffffffffffffffffffffffffffffffffffffffffffffffffffffffffffff1916908160001a905350600a8561217e9190613835565b94506120d6565b8093505050505b919050565b60007f01ffc9a7000000000000000000000000000000000000000000000000000000007bffffffffffffffffffffffffffffffffffffffffffffffffffffffff1916827bffffffffffffffffffffffffffffffffffffffffffffffffffffffff1916149050919050565b612206838383612506565b600073ffffffffffffffffffffffffffffffffffffffff168373ffffffffffffffffffffffffffffffffffffffff161415612249576122448161250b565b612288565b8173ffffffffffffffffffffffffffffffffffffffff168373ffffffffffffffffffffffffffffffffffffffff1614612287576122868382612554565b5b5b600073ffffffffffffffffffffffffffffffffffffffff168273ffffffffffffffffffffffffffffffffffffffff1614156122cb576122c6816126c1565b61230a565b8273ffffffffffffffffffffffffffffffffffffffff168273ffffffffffffffffffffffffffffffffffffffff1614612309576123088282612804565b5b5b505050565b505050565b61231e8383612883565b61232b600084848461236f565b61236a576040517f08c379a00000000000000000000000000000000000000000000000000000000081526004016123619061346c565b60405180910390fd5b505050565b60006123908473ffffffffffffffffffffffffffffffffffffffff16612a5d565b156124f9578373ffffffffffffffffffffffffffffffffffffffff1663150b7a026123b96118a5565b8786866040518563ffffffff1660e01b81526004016123db94939291906133a1565b602060405180830381600087803b1580156123f557600080fd5b505af192505050801561242657506040513d601f19601f820116820180604052508101906124239190612e55565b60015b6124a9573d8060008114612456576040519150601f19603f3d011682016040523d82523d6000602084013e61245b565b606091505b506000815114156124a1576040517f08c379a00000000000000000000000000000000000000000000000000000000081526004016124989061346c565b60405180910390fd5b805181602001fd5b63150b7a0260e01b7bffffffffffffffffffffffffffffffffffffffffffffffffffffffff1916817bffffffffffffffffffffffffffffffffffffffffffffffffffffffff1916149150506124fe565b600190505b949350505050565b505050565b6008805490506009600083815260200190815260200160002081905550600881908060018154018082558091505060019003906000526020600020016000909190919091505550565b6000600161256184611048565b61256b91906138c0565b9050600060076000848152602001908152602001600020549050818114612650576000600660008673ffffffffffffffffffffffffffffffffffffffff1673ffffffffffffffffffffffffffffffffffffffff168152602001908152602001600020600084815260200190815260200160002054905080600660008773ffffffffffffffffffffffffffffffffffffffff1673ffffffffffffffffffffffffffffffffffffffff168152602001908152602001600020600084815260200190815260200160002081905550816007600083815260200190815260200160002081905550505b6007600084815260200190815260200160002060009055600660008573ffffffffffffffffffffffffffffffffffffffff1673ffffffffffffffffffffffffffffffffffffffff16815260200190815260200160002060008381526020019081526020016000206000905550505050565b600060016008805490506126d591906138c0565b905060006009600084815260200190815260200160002054905060006008838154811061272b577f4e487b7100000000000000000000000000000000000000000000000000000000600052603260045260246000fd5b906000526020600020015490508060088381548110612773577f4e487b7100000000000000000000000000000000000000000000000000000000600052603260045260246000fd5b9060005260206000200181905550816009600083815260200190815260200160002081905550600960008581526020019081526020016000206000905560088054806127e8577f4e487b7100000000000000000000000000000000000000000000000000000000600052603160045260246000fd5b6001900381819060005260206000200160009055905550505050565b600061280f83611048565b905081600660008573ffffffffffffffffffffffffffffffffffffffff1673ffffffffffffffffffffffffffffffffffffffff168152602001908152602001600020600083815260200190815260200160002081905550806007600084815260200190815260200160002081905550505050565b600073ffffffffffffffffffffffffffffffffffffffff168273ffffffffffffffffffffffffffffffffffffffff1614156128f3576040517f08c379a00000000000000000000000000000000000000000000000000000000081526004016128ea906135cc565b60405180910390fd5b6128fc816118ad565b1561293c576040517f08c379a0000000000000000000000000000000000000000000000000000000008152600401612933906134cc565b60405180910390fd5b612948600083836121fb565b6001600360008473ffffffffffffffffffffffffffffffffffffffff1673ffffffffffffffffffffffffffffffffffffffff168152602001908152602001600020600082825461299891906137df565b92505081905550816002600083815260200190815260200160002060006101000a81548173ffffffffffffffffffffffffffffffffffffffff021916908373ffffffffffffffffffffffffffffffffffffffff160217905550808273ffffffffffffffffffffffffffffffffffffffff16600073ffffffffffffffffffffffffffffffffffffffff167fddf252ad1be2c89b69c2b068fc378daa952ba7f163c4a11628f55a4df523b3ef60405160405180910390a4612a596000838361230f565b5050565b6000808273ffffffffffffffffffffffffffffffffffffffff163b119050919050565b828054612a8c906139aa565b90600052602060002090601f016020900481019282612aae5760008555612af5565b82601f10612ac757805160ff1916838001178555612af5565b82800160010185558215612af5579182015b82811115612af4578251825591602001919060010190612ad9565b5b509050612b029190612b06565b5090565b5b80821115612b1f576000816000905550600101612b07565b5090565b6000612b36612b31846136ec565b6136c7565b905082815260208101848484011115612b4e57600080fd5b612b59848285613968565b509392505050565b6000612b74612b6f8461371d565b6136c7565b905082815260208101848484011115612b8c57600080fd5b612b97848285613968565b509392505050565b600081359050612bae81614073565b92915050565b600081359050612bc38161408a565b92915050565b600081359050612bd8816140a1565b92915050565b600081519050612bed816140a1565b92915050565b600082601f830112612c0457600080fd5b8135612c14848260208601612b23565b91505092915050565b600082601f830112612c2e57600080fd5b8135612c3e848260208601612b61565b91505092915050565b600081359050612c56816140b8565b92915050565b600060208284031215612c6e57600080fd5b6000612c7c84828501612b9f565b91505092915050565b60008060408385031215612c9857600080fd5b6000612ca685828601612b9f565b9250506020612cb785828601612b9f565b9150509250929050565b600080600060608486031215612cd657600080fd5b6000612ce486828701612b9f565b9350506020612cf586828701612b9f565b9250506040612d0686828701612c47565b9150509250925092565b60008060008060808587031215612d2657600080fd5b6000612d3487828801612b9f565b9450506020612d4587828801612b9f565b9350506040612d5687828801612c47565b925050606085013567ffffffffffffffff811115612d7357600080fd5b612d7f87828801612bf3565b91505092959194509250565b60008060408385031215612d9e57600080fd5b6000612dac85828601612b9f565b9250506020612dbd85828601612bb4565b9150509250929050565b60008060408385031215612dda57600080fd5b6000612de885828601612b9f565b9250506020612df985828601612c47565b9150509250929050565b600060208284031215612e1557600080fd5b6000612e2384828501612bb4565b91505092915050565b600060208284031215612e3e57600080fd5b6000612e4c84828501612bc9565b91505092915050565b600060208284031215612e6757600080fd5b6000612e7584828501612bde565b91505092915050565b600060208284031215612e9057600080fd5b600082013567ffffffffffffffff811115612eaa57600080fd5b612eb684828501612c1d565b91505092915050565b600060208284031215612ed157600080fd5b6000612edf84828501612c47565b91505092915050565b6000612ef48383613337565b60208301905092915050565b612f09816138f4565b82525050565b6000612f1a82613773565b612f2481856137a1565b9350612f2f8361374e565b8060005b83811015612f60578151612f478882612ee8565b9750612f5283613794565b925050600181019050612f33565b5085935050505092915050565b612f7681613906565b82525050565b6000612f878261377e565b612f9181856137b2565b9350612fa1818560208601613977565b612faa81613b43565b840191505092915050565b6000612fc082613789565b612fca81856137c3565b9350612fda818560208601613977565b612fe381613b43565b840191505092915050565b6000612ff982613789565b61300381856137d4565b9350613013818560208601613977565b80840191505092915050565b6000815461302c816139aa565b61303681866137d4565b94506001821660008114613051576001811461306257613095565b60ff19831686528186019350613095565b61306b8561375e565b60005b8381101561308d5781548189015260018201915060208101905061306e565b838801955050505b50505092915050565b60006130ab602b836137c3565b91506130b682613b54565b604082019050919050565b60006130ce6032836137c3565b91506130d982613ba3565b604082019050919050565b60006130f16026836137c3565b91506130fc82613bf2565b604082019050919050565b60006131146025836137c3565b915061311f82613c41565b604082019050919050565b6000613137601c836137c3565b915061314282613c90565b602082019050919050565b600061315a601c836137c3565b915061316582613cb9565b602082019050919050565b600061317d6024836137c3565b915061318882613ce2565b604082019050919050565b60006131a06019836137c3565b91506131ab82613d31565b602082019050919050565b60006131c3602c836137c3565b91506131ce82613d5a565b604082019050919050565b60006131e66038836137c3565b91506131f182613da9565b604082019050919050565b6000613209602a836137c3565b915061321482613df8565b604082019050919050565b600061322c6029836137c3565b915061323782613e47565b604082019050919050565b600061324f6020836137c3565b915061325a82613e96565b602082019050919050565b6000613272602c836137c3565b915061327d82613ebf565b604082019050919050565b60006132956020836137c3565b91506132a082613f0e565b602082019050919050565b60006132b8602f836137c3565b91506132c382613f37565b604082019050919050565b60006132db6021836137c3565b91506132e682613f86565b604082019050919050565b60006132fe6031836137c3565b915061330982613fd5565b604082019050919050565b6000613321602c836137c3565b915061332c82614024565b604082019050919050565b6133408161395e565b82525050565b61334f8161395e565b82525050565b60006133618286612fee565b915061336d8285612fee565b9150613379828461301f565b9150819050949350505050565b600060208201905061339b6000830184612f00565b92915050565b60006080820190506133b66000830187612f00565b6133c36020830186612f00565b6133d06040830185613346565b81810360608301526133e28184612f7c565b905095945050505050565b600060208201905081810360008301526134078184612f0f565b905092915050565b60006020820190506134246000830184612f6d565b92915050565b600060208201905081810360008301526134448184612fb5565b905092915050565b600060208201905081810360008301526134658161309e565b9050919050565b60006020820190508181036000830152613485816130c1565b9050919050565b600060208201905081810360008301526134a5816130e4565b9050919050565b600060208201905081810360008301526134c581613107565b9050919050565b600060208201905081810360008301526134e58161312a565b9050919050565b600060208201905081810360008301526135058161314d565b9050919050565b6000602082019050818103600083015261352581613170565b9050919050565b6000602082019050818103600083015261354581613193565b9050919050565b60006020820190508181036000830152613565816131b6565b9050919050565b60006020820190508181036000830152613585816131d9565b9050919050565b600060208201905081810360008301526135a5816131fc565b9050919050565b600060208201905081810360008301526135c58161321f565b9050919050565b600060208201905081810360008301526135e581613242565b9050919050565b6000602082019050818103600083015261360581613265565b9050919050565b6000602082019050818103600083015261362581613288565b9050919050565b60006020820190508181036000830152613645816132ab565b9050919050565b60006020820190508181036000830152613665816132ce565b9050919050565b60006020820190508181036000830152613685816132f1565b9050919050565b600060208201905081810360008301526136a581613314565b9050919050565b60006020820190506136c16000830184613346565b92915050565b60006136d16136e2565b90506136dd82826139dc565b919050565b6000604051905090565b600067ffffffffffffffff82111561370757613706613b14565b5b61371082613b43565b9050602081019050919050565b600067ffffffffffffffff82111561373857613737613b14565b5b61374182613b43565b9050602081019050919050565b6000819050602082019050919050565b60008190508160005260206000209050919050565b600081519050919050565b600081519050919050565b600081519050919050565b6000602082019050919050565b600082825260208201905092915050565b600082825260208201905092915050565b600082825260208201905092915050565b600081905092915050565b60006137ea8261395e565b91506137f58361395e565b9250827fffffffffffffffffffffffffffffffffffffffffffffffffffffffffffffffff0382111561382a57613829613a87565b5b828201905092915050565b60006138408261395e565b915061384b8361395e565b92508261385b5761385a613ab6565b5b828204905092915050565b60006138718261395e565b915061387c8361395e565b9250817fffffffffffffffffffffffffffffffffffffffffffffffffffffffffffffffff04831182151516156138b5576138b4613a87565b5b828202905092915050565b60006138cb8261395e565b91506138d68361395e565b9250828210156138e9576138e8613a87565b5b828203905092915050565b60006138ff8261393e565b9050919050565b60008115159050919050565b60007fffffffff0000000000000000000000000000000000000000000000000000000082169050919050565b600073ffffffffffffffffffffffffffffffffffffffff82169050919050565b6000819050919050565b82818337600083830152505050565b60005b8381101561399557808201518184015260208101905061397a565b838111156139a4576000848401525b50505050565b600060028204905060018216806139c257607f821691505b602082108114156139d6576139d5613ae5565b5b50919050565b6139e582613b43565b810181811067ffffffffffffffff82111715613a0457613a03613b14565b5b80604052505050565b6000613a188261395e565b91507fffffffffffffffffffffffffffffffffffffffffffffffffffffffffffffffff821415613a4b57613a4a613a87565b5b600182019050919050565b6000613a618261395e565b9150613a6c8361395e565b925082613a7c57613a7b613ab6565b5b828206905092915050565b7f4e487b7100000000000000000000000000000000000000000000000000000000600052601160045260246000fd5b7f4e487b7100000000000000000000000000000000000000000000000000000000600052601260045260246000fd5b7f4e487b7100000000000000000000000000000000000000000000000000000000600052602260045260246000fd5b7f4e487b7100000000000000000000000000000000000000000000000000000000600052604160045260246000fd5b6000601f19601f8301169050919050565b7f455243373231456e756d657261626c653a206f776e657220696e646578206f7560008201527f74206f6620626f756e6473000000000000000000000000000000000000000000602082015250565b7f4552433732313a207472616e7366657220746f206e6f6e20455243373231526560008201527f63656976657220696d706c656d656e7465720000000000000000000000000000602082015250565b7f4f776e61626c653a206e6577206f776e657220697320746865207a65726f206160008201527f6464726573730000000000000000000000000000000000000000000000000000602082015250565b7f4552433732313a207472616e736665722066726f6d20696e636f72726563742060008201527f6f776e6572000000000000000000000000000000000000000000000000000000602082015250565b7f4552433732313a20746f6b656e20616c7265616479206d696e74656400000000600082015250565b7f4e65656420746f2073656e6420302e3030303030312065746865722100000000600082015250565b7f4552433732313a207472616e7366657220746f20746865207a65726f2061646460008201527f7265737300000000000000000000000000000000000000000000000000000000602082015250565b7f4552433732313a20617070726f766520746f2063616c6c657200000000000000600082015250565b7f4552433732313a206f70657261746f7220717565727920666f72206e6f6e657860008201527f697374656e7420746f6b656e0000000000000000000000000000000000000000602082015250565b7f4552433732313a20617070726f76652063616c6c6572206973206e6f74206f7760008201527f6e6572206e6f7220617070726f76656420666f7220616c6c0000000000000000602082015250565b7f4552433732313a2062616c616e636520717565727920666f7220746865207a6560008201527f726f206164647265737300000000000000000000000000000000000000000000602082015250565b7f4552433732313a206f776e657220717565727920666f72206e6f6e657869737460008201527f656e7420746f6b656e0000000000000000000000000000000000000000000000602082015250565b7f4552433732313a206d696e7420746f20746865207a65726f2061646472657373600082015250565b7f4552433732313a20617070726f76656420717565727920666f72206e6f6e657860008201527f697374656e7420746f6b656e0000000000000000000000000000000000000000602082015250565b7f4f776e61626c653a2063616c6c6572206973206e6f7420746865206f776e6572600082015250565b7f4552433732314d657461646174613a2055524920717565727920666f72206e6f60008201527f6e6578697374656e7420746f6b656e0000000000000000000000000000000000602082015250565b7f4552433732313a20617070726f76616c20746f2063757272656e74206f776e6560008201527f7200000000000000000000000000000000000000000000000000000000000000602082015250565b7f4552433732313a207472616e736665722063616c6c6572206973206e6f74206f60008201527f776e6572206e6f7220617070726f766564000000000000000000000000000000602082015250565b7f455243373231456e756d657261626c653a20676c6f62616c20696e646578206f60008201527f7574206f6620626f756e64730000000000000000000000000000000000000000602082015250565b61407c816138f4565b811461408757600080fd5b50565b61409381613906565b811461409e57600080fd5b50565b6140aa81613912565b81146140b557600080fd5b50565b6140c18161395e565b81146140cc57600080fd5b5056fe697066733a2f2f516d52557a51737a43534b535153726f4e7838565131786362666b61513573794e33614e4a6352514e784b4741562fa2646970667358221220abe74619328e4a418a96257eadb9a9e413fc6edd917ed54073c011f05316bbee64736f6c63430008040033",
  "linkReferences": {},
  "deployedLinkReferences": {}
}